:100000000C942A000C9434000C9434000C943400AA
:100010000C9434000C9434000C9434000C94340090
:100020000C9434000C9434000C9434000C94340080
:100030000C9434000C9434000C9434000C94340070
:100040000C9434000C9434000C9434000C94340060
:100050000C94340011241FBECFE5D4E0DEBFCDBF29
:100060000E9436000C944F000C9400008FEF87BB69
:1000700088BB18BA2FE784E89EE121508040904069
:10008000E1F700C000008FEF88BB2FE784E89EE116
:10009000215080409040E1F700C00000EACFF89482
:0200A000FFCF90
:00000001FF
